{
  "_format": "hh-sol-artifact-1",
  "contractName": "Virtush",
  "sourceName": "contracts/VirtushNFT.sol",
  "abi": [
    {
      "inputs": [
        {
          "internalType": "address",
          "name": "initialOwner",
          "type": "address"
        },
        {
          "internalType": "address",
          "name": "_token",
          "type": "address"
        }
      ],
      "stateMutability": "nonpayable",
      "type": "constructor"
    },
    {
      "inputs": [
        {
          "internalType": "address",
          "name": "sender",
          "type": "address"
        },
        {
          "internalType": "uint256",
          "name": "balance",
          "type": "uint256"
        },
        {
          "internalType": "uint256",
          "name": "needed",
          "type": "uint256"
        },
        {
          "internalType": "uint256",
          "name": "tokenId",
          "type": "uint256"
        }
      ],
      "name": "ERC1155InsufficientBalance",
      "type": "error"
    },
    {
      "inputs": [
        {
          "internalType": "address",
          "name": "approver",
          "type": "address"
        }
      ],
      "name": "ERC1155InvalidApprover",
      "type": "error"
    },
    {
      "inputs": [
        {
          "internalType": "uint256",
          "name": "idsLength",
          "type": "uint256"
        },
        {
          "internalType": "uint256",
          "name": "valuesLength",
          "type": "uint256"
        }
      ],
      "name": "ERC1155InvalidArrayLength",
      "type": "error"
    },
    {
      "inputs": [
        {
          "internalType": "address",
          "name": "operator",
          "type": "address"
        }
      ],
      "name": "ERC1155InvalidOperator",
      "type": "error"
    },
    {
      "inputs": [
        {
          "internalType": "address",
          "name": "receiver",
          "type": "address"
        }
      ],
      "name": "ERC1155InvalidReceiver",
      "type": "error"
    },
    {
      "inputs": [
        {
          "internalType": "address",
          "name": "sender",
          "type": "address"
        }
      ],
      "name": "ERC1155InvalidSender",
      "type": "error"
    },
    {
      "inputs": [
        {
          "internalType": "address",
          "name": "operator",
          "type": "address"
        },
        {
          "internalType": "address",
          "name": "owner",
          "type": "address"
        }
      ],
      "name": "ERC1155MissingApprovalForAll",
      "type": "error"
    },
    {
      "inputs": [
        {
          "internalType": "address",
          "name": "owner",
          "type": "address"
        }
      ],
      "name": "OwnableInvalidOwner",
      "type": "error"
    },
    {
      "inputs": [
        {
          "internalType": "address",
          "name": "account",
          "type": "address"
        }
      ],
      "name": "OwnableUnauthorizedAccount",
      "type": "error"
    },
    {
      "anonymous": false,
      "inputs": [
        {
          "indexed": true,
          "internalType": "address",
          "name": "account",
          "type": "address"
        },
        {
          "indexed": true,
          "internalType": "address",
          "name": "operator",
          "type": "address"
        },
        {
          "indexed": false,
          "internalType": "bool",
          "name": "approved",
          "type": "bool"
        }
      ],
      "name": "ApprovalForAll",
      "type": "event"
    },
    {
      "anonymous": false,
      "inputs": [
        {
          "indexed": true,
          "internalType": "address",
          "name": "previousOwner",
          "type": "address"
        },
        {
          "indexed": true,
          "internalType": "address",
          "name": "newOwner",
          "type": "address"
        }
      ],
      "name": "OwnershipTransferred",
      "type": "event"
    },
    {
      "anonymous": false,
      "inputs": [
        {
          "indexed": true,
          "internalType": "address",
          "name": "operator",
          "type": "address"
        },
        {
          "indexed": true,
          "internalType": "address",
          "name": "from",
          "type": "address"
        },
        {
          "indexed": true,
          "internalType": "address",
          "name": "to",
          "type": "address"
        },
        {
          "indexed": false,
          "internalType": "uint256[]",
          "name": "ids",
          "type": "uint256[]"
        },
        {
          "indexed": false,
          "internalType": "uint256[]",
          "name": "values",
          "type": "uint256[]"
        }
      ],
      "name": "TransferBatch",
      "type": "event"
    },
    {
      "anonymous": false,
      "inputs": [
        {
          "indexed": true,
          "internalType": "address",
          "name": "operator",
          "type": "address"
        },
        {
          "indexed": true,
          "internalType": "address",
          "name": "from",
          "type": "address"
        },
        {
          "indexed": true,
          "internalType": "address",
          "name": "to",
          "type": "address"
        },
        {
          "indexed": false,
          "internalType": "uint256",
          "name": "id",
          "type": "uint256"
        },
        {
          "indexed": false,
          "internalType": "uint256",
          "name": "value",
          "type": "uint256"
        }
      ],
      "name": "TransferSingle",
      "type": "event"
    },
    {
      "anonymous": false,
      "inputs": [
        {
          "indexed": false,
          "internalType": "string",
          "name": "value",
          "type": "string"
        },
        {
          "indexed": true,
          "internalType": "uint256",
          "name": "id",
          "type": "uint256"
        }
      ],
      "name": "URI",
      "type": "event"
    },
    {
      "inputs": [
        {
          "internalType": "address",
          "name": "account",
          "type": "address"
        },
        {
          "internalType": "uint256",
          "name": "id",
          "type": "uint256"
        }
      ],
      "name": "balanceOf",
      "outputs": [
        {
          "internalType": "uint256",
          "name": "",
          "type": "uint256"
        }
      ],
      "stateMutability": "view",
      "type": "function"
    },
    {
      "inputs": [
        {
          "internalType": "address[]",
          "name": "accounts",
          "type": "address[]"
        },
        {
          "internalType": "uint256[]",
          "name": "ids",
          "type": "uint256[]"
        }
      ],
      "name": "balanceOfBatch",
      "outputs": [
        {
          "internalType": "uint256[]",
          "name": "",
          "type": "uint256[]"
        }
      ],
      "stateMutability": "view",
      "type": "function"
    },
    {
      "inputs": [
        {
          "internalType": "address",
          "name": "account",
          "type": "address"
        },
        {
          "internalType": "uint256",
          "name": "value",
          "type": "uint256"
        }
      ],
      "name": "buy",
      "outputs": [
        {
          "internalType": "uint256",
          "name": "",
          "type": "uint256"
        }
      ],
      "stateMutability": "nonpayable",
      "type": "function"
    },
    {
      "inputs": [
        {
          "internalType": "address",
          "name": "account",
          "type": "address"
        },
        {
          "internalType": "address",
          "name": "operator",
          "type": "address"
        }
      ],
      "name": "isApprovedForAll",
      "outputs": [
        {
          "internalType": "bool",
          "name": "",
          "type": "bool"
        }
      ],
      "stateMutability": "view",
      "type": "function"
    },
    {
      "inputs": [
        {
          "internalType": "address",
          "name": "account",
          "type": "address"
        },
        {
          "internalType": "uint256",
          "name": "amount",
          "type": "uint256"
        }
      ],
      "name": "mint",
      "outputs": [],
      "stateMutability": "nonpayable",
      "type": "function"
    },
    {
      "inputs": [],
      "name": "name",
      "outputs": [
        {
          "internalType": "string",
          "name": "",
          "type": "string"
        }
      ],
      "stateMutability": "view",
      "type": "function"
    },
    {
      "inputs": [],
      "name": "owner",
      "outputs": [
        {
          "internalType": "address",
          "name": "",
          "type": "address"
        }
      ],
      "stateMutability": "view",
      "type": "function"
    },
    {
      "inputs": [],
      "name": "renounceOwnership",
      "outputs": [],
      "stateMutability": "nonpayable",
      "type": "function"
    },
    {
      "inputs": [
        {
          "internalType": "address",
          "name": "from",
          "type": "address"
        },
        {
          "internalType": "address",
          "name": "to",
          "type": "address"
        },
        {
          "internalType": "uint256[]",
          "name": "ids",
          "type": "uint256[]"
        },
        {
          "internalType": "uint256[]",
          "name": "values",
          "type": "uint256[]"
        },
        {
          "internalType": "bytes",
          "name": "data",
          "type": "bytes"
        }
      ],
      "name": "safeBatchTransferFrom",
      "outputs": [],
      "stateMutability": "nonpayable",
      "type": "function"
    },
    {
      "inputs": [
        {
          "internalType": "address",
          "name": "from",
          "type": "address"
        },
        {
          "internalType": "address",
          "name": "to",
          "type": "address"
        },
        {
          "internalType": "uint256",
          "name": "id",
          "type": "uint256"
        },
        {
          "internalType": "uint256",
          "name": "value",
          "type": "uint256"
        },
        {
          "internalType": "bytes",
          "name": "data",
          "type": "bytes"
        }
      ],
      "name": "safeTransferFrom",
      "outputs": [],
      "stateMutability": "nonpayable",
      "type": "function"
    },
    {
      "inputs": [
        {
          "internalType": "address",
          "name": "operator",
          "type": "address"
        },
        {
          "internalType": "bool",
          "name": "approved",
          "type": "bool"
        }
      ],
      "name": "setApprovalForAll",
      "outputs": [],
      "stateMutability": "nonpayable",
      "type": "function"
    },
    {
      "inputs": [
        {
          "internalType": "string",
          "name": "newuri",
          "type": "string"
        }
      ],
      "name": "setURI",
      "outputs": [],
      "stateMutability": "nonpayable",
      "type": "function"
    },
    {
      "inputs": [
        {
          "internalType": "bytes4",
          "name": "interfaceId",
          "type": "bytes4"
        }
      ],
      "name": "supportsInterface",
      "outputs": [
        {
          "internalType": "bool",
          "name": "",
          "type": "bool"
        }
      ],
      "stateMutability": "view",
      "type": "function"
    },
    {
      "inputs": [],
      "name": "totalSupply",
      "outputs": [
        {
          "internalType": "uint256",
          "name": "",
          "type": "uint256"
        }
      ],
      "stateMutability": "view",
      "type": "function"
    },
    {
      "inputs": [
        {
          "internalType": "address",
          "name": "newOwner",
          "type": "address"
        }
      ],
      "name": "transferOwnership",
      "outputs": [],
      "stateMutability": "nonpayable",
      "type": "function"
    },
    {
      "inputs": [
        {
          "internalType": "uint256",
          "name": "",
          "type": "uint256"
        }
      ],
      "name": "uri",
      "outputs": [
        {
          "internalType": "string",
          "name": "",
          "type": "string"
        }
      ],
      "stateMutability": "view",
      "type": "function"
    },
    {
      "inputs": [],
      "name": "usdt",
      "outputs": [
        {
          "internalType": "contract IERC20",
          "name": "",
          "type": "address"
        }
      ],
      "stateMutability": "view",
      "type": "function"
    }
  ],
  "bytecode": "0x60c06040526040518060400160405280600b81526020017f56697274757368204e46540000000000000000000000000000000000000000008152506004908161004891906104cc565b506301406f406080908152506802b5e3af16b188000060a09081525034801561007057600080fd5b5060405161353438038061353483398181016040528101906100929190610601565b816040518060400160405280600781526020017f56697274757368000000000000000000000000000000000000000000000000008152506100d8816101a360201b60201c565b50600073ffffffffffffffffffffffffffffffffffffffff168173ffffffffffffffffffffffffffffffffffffffff160361014b5760006040517f1e4fbdf70000000000000000000000000000000000000000000000000000000081526004016101429190610650565b60405180910390fd5b61015a816101b660201b60201c565b5080600660006101000a81548173ffffffffffffffffffffffffffffffffffffffff021916908373ffffffffffffffffffffffffffffffffffffffff160217905550505061066b565b80600290816101b291906104cc565b5050565b6000600360009054906101000a900473ffffffffffffffffffffffffffffffffffffffff16905081600360006101000a81548173ffffffffffffffffffffffffffffffffffffffff021916908373ffffffffffffffffffffffffffffffffffffffff1602179055508173ffffffffffffffffffffffffffffffffffffffff168173ffffffffffffffffffffffffffffffffffffffff167f8be0079c531659141344cd1fd0a4f28419497f9722a3daafe3b4186f6b6457e060405160405180910390a35050565b600081519050919050565b7f4e487b7100000000000000000000000000000000000000000000000000000000600052604160045260246000fd5b7f4e487b7100000000000000000000000000000000000000000000000000000000600052602260045260246000fd5b600060028204905060018216806102fd57607f821691505b6020821081036103105761030f6102b6565b5b50919050565b60008190508160005260206000209050919050565b60006020601f8301049050919050565b600082821b905092915050565b6000600883026103787fffffffffffffffffffffffffffffffffffffffffffffffffffffffffffffffff8261033b565b610382868361033b565b95508019841693508086168417925050509392505050565b6000819050919050565b6000819050919050565b60006103c96103c46103bf8461039a565b6103a4565b61039a565b9050919050565b6000819050919050565b6103e3836103ae565b6103f76103ef826103d0565b848454610348565b825550505050565b600090565b61040c6103ff565b6104178184846103da565b505050565b5b8181101561043b57610430600082610404565b60018101905061041d565b5050565b601f8211156104805761045181610316565b61045a8461032b565b81016020851015610469578190505b61047d6104758561032b565b83018261041c565b50505b505050565b600082821c905092915050565b60006104a360001984600802610485565b1980831691505092915050565b60006104bc8383610492565b9150826002028217905092915050565b6104d58261027c565b67ffffffffffffffff8111156104ee576104ed610287565b5b6104f882546102e5565b61050382828561043f565b600060209050601f8311600181146105365760008415610524578287015190505b61052e85826104b0565b865550610596565b601f19841661054486610316565b60005b8281101561056c57848901518255600182019150602085019450602081019050610547565b868310156105895784890151610585601f891682610492565b8355505b6001600288020188555050505b505050505050565b600080fd5b600073ffffffffffffffffffffffffffffffffffffffff82169050919050565b60006105ce826105a3565b9050919050565b6105de816105c3565b81146105e957600080fd5b50565b6000815190506105fb816105d5565b92915050565b600080604083850312156106185761061761059e565b5b6000610626858286016105ec565b9250506020610637858286016105ec565b9150509250929050565b61064a816105c3565b82525050565b60006020820190506106656000830184610641565b92915050565b60805160a051612e9661069e600039600081816109480152610b4e0152600081816106c201526108e30152612e966000f3fe608060405234801561001057600080fd5b506004361061010a5760003560e01c806340c10f19116100a2578063a22cb46511610071578063a22cb465146102a5578063cce7ec13146102c1578063e985e9c5146102f1578063f242432a14610321578063f2fde38b1461033d5761010a565b806340c10f19146102315780634e1273f41461024d578063715018a61461027d5780638da5cb5b146102875761010a565b80630e89341c116100de5780630e89341c146101a957806318160ddd146101d95780632eb2c2d6146101f75780632f48ab7d146102135761010a565b8062fdd58e1461010f57806301ffc9a71461013f57806302fe53051461016f57806306fdde031461018b575b600080fd5b61012960048036038101906101249190611c7f565b610359565b6040516101369190611cce565b60405180910390f35b61015960048036038101906101549190611d41565b6103b3565b6040516101669190611d89565b60405180910390f35b61018960048036038101906101849190611eea565b610495565b005b6101936104a9565b6040516101a09190611fb2565b60405180910390f35b6101c360048036038101906101be9190611fd4565b61053b565b6040516101d09190611fb2565b60405180910390f35b6101e16105cf565b6040516101ee9190611cce565b60405180910390f35b610211600480360381019061020c919061216a565b6105d5565b005b61021b61067d565b6040516102289190612298565b60405180910390f35b61024b60048036038101906102469190611c7f565b6106a3565b005b61026760048036038101906102629190612376565b61076c565b60405161027491906124ac565b60405180910390f35b610285610875565b005b61028f610889565b60405161029c91906124dd565b60405180910390f35b6102bf60048036038101906102ba9190612524565b6108b3565b005b6102db60048036038101906102d69190611c7f565b6108c9565b6040516102e89190611cce565b60405180910390f35b61030b60048036038101906103069190612564565b610c1d565b6040516103189190611d89565b60405180910390f35b61033b600480360381019061033691906125a4565b610cb1565b005b6103576004803603810190610352919061263b565b610d59565b005b600080600083815260200190815260200160002060008473ffffffffffffffffffffffffffffffffffffffff1673ffffffffffffffffffffffffffffffffffffffff16815260200190815260200160002054905092915050565b60007fd9b67a26000000000000000000000000000000000000000000000000000000007bffffffffffffffffffffffffffffffffffffffffffffffffffffffff1916827bffffffffffffffffffffffffffffffffffffffffffffffffffffffff1916148061047e57507f0e89341c000000000000000000000000000000000000000000000000000000007bffffffffffffffffffffffffffffffffffffffffffffffffffffffff1916827bffffffffffffffffffffffffffffffffffffffffffffffffffffffff1916145b8061048e575061048d82610ddf565b5b9050919050565b61049d610e49565b6104a681610ed0565b50565b6060600480546104b890612697565b80601f01602080910402602001604051908101604052809291908181526020018280546104e490612697565b80156105315780601f1061050657610100808354040283529160200191610531565b820191906000526020600020905b81548152906001019060200180831161051457829003601f168201915b5050505050905090565b60606002805461054a90612697565b80601f016020809104026020016040519081016040528092919081815260200182805461057690612697565b80156105c35780601f10610598576101008083540402835291602001916105c3565b820191906000526020600020905b8154815290600101906020018083116105a657829003601f168201915b50505050509050919050565b60055481565b60006105df610ee3565b90508073ffffffffffffffffffffffffffffffffffffffff168673ffffffffffffffffffffffffffffffffffffffff161415801561062457506106228682610c1d565b155b156106685780866040517fe237d92200000000000000000000000000000000000000000000000000000000815260040161065f9291906126c8565b60405180910390fd5b6106758686868686610eeb565b505050505050565b600660009054906101000a900473ffffffffffffffffffffffffffffffffffffffff1681565b6106ab610e49565b80806005546106ba9190612720565b6005819055507f00000000000000000000000000000000000000000000000000000000000000006005541115610725576040517f08c379a000000000000000000000000000000000000000000000000000000000815260040161071c906127a0565b60405180910390fd5b610767836001846040518060400160405280600381526020017f3078300000000000000000000000000000000000000000000000000000000000815250610fe3565b505050565b606081518351146107b857815183516040517f5b0599910000000000000000000000000000000000000000000000000000000081526004016107af9291906127c0565b60405180910390fd5b6000835167ffffffffffffffff8111156107d5576107d4611dbf565b5b6040519080825280602002602001820160405280156108035781602001602082028036833780820191505090505b50905060005b845181101561086a57610840610828828761107c90919063ffffffff16565b61083b838761109090919063ffffffff16565b610359565b828281518110610853576108526127e9565b5b602002602001018181525050806001019050610809565b508091505092915050565b61087d610e49565b61088760006110a4565b565b6000600360009054906101000a900473ffffffffffffffffffffffffffffffffffffffff16905090565b6108c56108be610ee3565b838361116a565b5050565b60006001806005546108db9190612720565b6005819055507f00000000000000000000000000000000000000000000000000000000000000006005541115610946576040517f08c379a000000000000000000000000000000000000000000000000000000000815260040161093d906127a0565b60405180910390fd5b7f000000000000000000000000000000000000000000000000000000000000000083146109a8576040517f08c379a000000000000000000000000000000000000000000000000000000000815260040161099f90612864565b60405180910390fd5b82600660009054906101000a900473ffffffffffffffffffffffffffffffffffffffff1673ffffffffffffffffffffffffffffffffffffffff1663dd62ed3e6109ef610ee3565b306040518363ffffffff1660e01b8152600401610a0d9291906126c8565b602060405180830381865afa158015610a2a573d6000803e3d6000fd5b505050506040513d601f19601f82011682018060405250810190610a4e9190612899565b1015610a8f576040517f08c379a0000000000000000000000000000000000000000000000000000000008152600401610a8690612912565b60405180910390fd5b600073ffffffffffffffffffffffffffffffffffffffff168473ffffffffffffffffffffffffffffffffffffffff1603610afe576040517f08c379a0000000000000000000000000000000000000000000000000000000008152600401610af59061297e565b60405180910390fd5b600660009054906101000a900473ffffffffffffffffffffffffffffffffffffffff1673ffffffffffffffffffffffffffffffffffffffff166323b872dd610b44610ee3565b610b4c610889565b7f00000000000000000000000000000000000000000000000000000000000000006040518463ffffffff1660e01b8152600401610b8b9392919061299e565b6020604051808303816000875af1158015610baa573d6000803e3d6000fd5b505050506040513d601f19601f82011682018060405250810190610bce91906129ea565b50610c11846001806040518060400160405280600381526020017f3078300000000000000000000000000000000000000000000000000000000000815250610fe3565b60055491505092915050565b6000600160008473ffffffffffffffffffffffffffffffffffffffff1673ffffffffffffffffffffffffffffffffffffffff16815260200190815260200160002060008373ffffffffffffffffffffffffffffffffffffffff1673ffffffffffffffffffffffffffffffffffffffff16815260200190815260200160002060009054906101000a900460ff16905092915050565b6000610cbb610ee3565b90508073ffffffffffffffffffffffffffffffffffffffff168673ffffffffffffffffffffffffffffffffffffffff1614158015610d005750610cfe8682610c1d565b155b15610d445780866040517fe237d922000000000000000000000000000000000000000000000000000000008152600401610d3b9291906126c8565b60405180910390fd5b610d5186868686866112da565b505050505050565b610d61610e49565b600073ffffffffffffffffffffffffffffffffffffffff168173ffffffffffffffffffffffffffffffffffffffff1603610dd35760006040517f1e4fbdf7000000000000000000000000000000000000000000000000000000008152600401610dca91906124dd565b60405180910390fd5b610ddc816110a4565b50565b60007f01ffc9a7000000000000000000000000000000000000000000000000000000007bffffffffffffffffffffffffffffffffffffffffffffffffffffffff1916827bffffffffffffffffffffffffffffffffffffffffffffffffffffffff1916149050919050565b610e51610ee3565b73ffffffffffffffffffffffffffffffffffffffff16610e6f610889565b73ffffffffffffffffffffffffffffffffffffffff1614610ece57610e92610ee3565b6040517f118cdaa7000000000000000000000000000000000000000000000000000000008152600401610ec591906124dd565b60405180910390fd5b565b8060029081610edf9190612bb9565b5050565b600033905090565b600073ffffffffffffffffffffffffffffffffffffffff168473ffffffffffffffffffffffffffffffffffffffff1603610f5d5760006040517f57f447ce000000000000000000000000000000000000000000000000000000008152600401610f5491906124dd565b60405180910390fd5b600073ffffffffffffffffffffffffffffffffffffffff168573ffffffffffffffffffffffffffffffffffffffff1603610fcf5760006040517f01a83514000000000000000000000000000000000000000000000000000000008152600401610fc691906124dd565b60405180910390fd5b610fdc85858585856113e5565b5050505050565b600073ffffffffffffffffffffffffffffffffffffffff168473ffffffffffffffffffffffffffffffffffffffff16036110555760006040517f57f447ce00000000000000000000000000000000000000000000000000000000815260040161104c91906124dd565b60405180910390fd5b6000806110628585611497565b915091506110746000878484876113e5565b505050505050565b600060208202602084010151905092915050565b600060208202602084010151905092915050565b6000600360009054906101000a900473ffffffffffffffffffffffffffffffffffffffff16905081600360006101000a81548173ffffffffffffffffffffffffffffffffffffffff021916908373ffffffffffffffffffffffffffffffffffffffff1602179055508173ffffffffffffffffffffffffffffffffffffffff168173ffffffffffffffffffffffffffffffffffffffff167f8be0079c531659141344cd1fd0a4f28419497f9722a3daafe3b4186f6b6457e060405160405180910390a35050565b600073ffffffffffffffffffffffffffffffffffffffff168273ffffffffffffffffffffffffffffffffffffffff16036111dc5760006040517fced3e1000000000000000000000000000000000000000000000000000000000081526004016111d391906124dd565b60405180910390fd5b80600160008573ffffffffffffffffffffffffffffffffffffffff1673ffffffffffffffffffffffffffffffffffffffff16815260200190815260200160002060008473ffffffffffffffffffffffffffffffffffffffff1673ffffffffffffffffffffffffffffffffffffffff16815260200190815260200160002060006101000a81548160ff0219169083151502179055508173ffffffffffffffffffffffffffffffffffffffff168373ffffffffffffffffffffffffffffffffffffffff167f17307eab39ab6107e8899845ad3d59bd9653f200f220920489ca2b5937696c31836040516112cd9190611d89565b60405180910390a3505050565b600073ffffffffffffffffffffffffffffffffffffffff168473ffffffffffffffffffffffffffffffffffffffff160361134c5760006040517f57f447ce00000000000000000000000000000000000000000000000000000000815260040161134391906124dd565b60405180910390fd5b600073ffffffffffffffffffffffffffffffffffffffff168573ffffffffffffffffffffffffffffffffffffffff16036113be5760006040517f01a835140000000000000000000000000000000000000000000000000000000081526004016113b591906124dd565b60405180910390fd5b6000806113cb8585611497565b915091506113dc87878484876113e5565b50505050505050565b6113f1858585856114c7565b600073ffffffffffffffffffffffffffffffffffffffff168473ffffffffffffffffffffffffffffffffffffffff161461149057600061142f610ee3565b9050600184510361147f57600061145060008661109090919063ffffffff16565b9050600061146860008661109090919063ffffffff16565b905061147883898985858961186f565b505061148e565b61148d818787878787611a23565b5b505b5050505050565b60608060405191506001825283602083015260408201905060018152826020820152604081016040529250929050565b805182511461151157815181516040517f5b0599910000000000000000000000000000000000000000000000000000000081526004016115089291906127c0565b60405180910390fd5b600061151b610ee3565b905060005b835181101561172a57600061153e828661109090919063ffffffff16565b90506000611555838661109090919063ffffffff16565b9050600073ffffffffffffffffffffffffffffffffffffffff168873ffffffffffffffffffffffffffffffffffffffff161461168257600080600084815260200190815260200160002060008a73ffffffffffffffffffffffffffffffffffffffff1673ffffffffffffffffffffffffffffffffffffffff1681526020019081526020016000205490508181101561162a57888183856040517f03dee4c50000000000000000000000000000000000000000000000000000000081526004016116219493929190612c8b565b60405180910390fd5b81810360008085815260200190815260200160002060008b73ffffffffffffffffffffffffffffffffffffffff1673ffffffffffffffffffffffffffffffffffffffff16815260200190815260200160002081905550505b600073ffffffffffffffffffffffffffffffffffffffff168773ffffffffffffffffffffffffffffffffffffffff161461171d578060008084815260200190815260200160002060008973ffffffffffffffffffffffffffffffffffffffff1673ffffffffffffffffffffffffffffffffffffffff16815260200190815260200160002060008282546117159190612720565b925050819055505b5050806001019050611520565b5060018351036117e957600061174a60008561109090919063ffffffff16565b9050600061176260008561109090919063ffffffff16565b90508573ffffffffffffffffffffffffffffffffffffffff168773ffffffffffffffffffffffffffffffffffffffff168473ffffffffffffffffffffffffffffffffffffffff167fc3d58168c5ae7397731d063d5bbf3d657854427343f4c083240f7aacaa2d0f6285856040516117da9291906127c0565b60405180910390a45050611868565b8373ffffffffffffffffffffffffffffffffffffffff168573ffffffffffffffffffffffffffffffffffffffff168273ffffffffffffffffffffffffffffffffffffffff167f4a39dc06d4c0dbc64b70af90fd698a233a518aa5d07e595d983b8c0526c8f7fb868660405161185f929190612cd0565b60405180910390a45b5050505050565b60008473ffffffffffffffffffffffffffffffffffffffff163b1115611a1b578373ffffffffffffffffffffffffffffffffffffffff1663f23a6e6187878686866040518663ffffffff1660e01b81526004016118d0959493929190612d5c565b6020604051808303816000875af192505050801561190c57506040513d601f19601f820116820180604052508101906119099190612dcb565b60015b611990573d806000811461193c576040519150601f19603f3d011682016040523d82523d6000602084013e611941565b606091505b50600081510361198857846040517f57f447ce00000000000000000000000000000000000000000000000000000000815260040161197f91906124dd565b60405180910390fd5b805181602001fd5b63f23a6e6160e01b7bffffffffffffffffffffffffffffffffffffffffffffffffffffffff1916817bffffffffffffffffffffffffffffffffffffffffffffffffffffffff191614611a1957846040517f57f447ce000000000000000000000000000000000000000000000000000000008152600401611a1091906124dd565b60405180910390fd5b505b505050505050565b60008473ffffffffffffffffffffffffffffffffffffffff163b1115611bcf578373ffffffffffffffffffffffffffffffffffffffff1663bc197c8187878686866040518663ffffffff1660e01b8152600401611a84959493929190612df8565b6020604051808303816000875af1925050508015611ac057506040513d601f19601f82011682018060405250810190611abd9190612dcb565b60015b611b44573d8060008114611af0576040519150601f19603f3d011682016040523d82523d6000602084013e611af5565b606091505b506000815103611b3c57846040517f57f447ce000000000000000000000000000000000000000000000000000000008152600401611b3391906124dd565b60405180910390fd5b805181602001fd5b63bc197c8160e01b7bffffffffffffffffffffffffffffffffffffffffffffffffffffffff1916817bffffffffffffffffffffffffffffffffffffffffffffffffffffffff191614611bcd57846040517f57f447ce000000000000000000000000000000000000000000000000000000008152600401611bc491906124dd565b60405180910390fd5b505b505050505050565b6000604051905090565b600080fd5b600080fd5b600073ffffffffffffffffffffffffffffffffffffffff82169050919050565b6000611c1682611beb565b9050919050565b611c2681611c0b565b8114611c3157600080fd5b50565b600081359050611c4381611c1d565b92915050565b6000819050919050565b611c5c81611c49565b8114611c6757600080fd5b50565b600081359050611c7981611c53565b92915050565b60008060408385031215611c9657611c95611be1565b5b6000611ca485828601611c34565b9250506020611cb585828601611c6a565b9150509250929050565b611cc881611c49565b82525050565b6000602082019050611ce36000830184611cbf565b92915050565b60007fffffffff0000000000000000000000000000000000000000000000000000000082169050919050565b611d1e81611ce9565b8114611d2957600080fd5b50565b600081359050611d3b81611d15565b92915050565b600060208284031215611d5757611d56611be1565b5b6000611d6584828501611d2c565b91505092915050565b60008115159050919050565b611d8381611d6e565b82525050565b6000602082019050611d9e6000830184611d7a565b92915050565b600080fd5b600080fd5b6000601f19601f8301169050919050565b7f4e487b7100000000000000000000000000000000000000000000000000000000600052604160045260246000fd5b611df782611dae565b810181811067ffffffffffffffff82111715611e1657611e15611dbf565b5b80604052505050565b6000611e29611bd7565b9050611e358282611dee565b919050565b600067ffffffffffffffff821115611e5557611e54611dbf565b5b611e5e82611dae565b9050602081019050919050565b82818337600083830152505050565b6000611e8d611e8884611e3a565b611e1f565b905082815260208101848484011115611ea957611ea8611da9565b5b611eb4848285611e6b565b509392505050565b600082601f830112611ed157611ed0611da4565b5b8135611ee1848260208601611e7a565b91505092915050565b600060208284031215611f0057611eff611be1565b5b600082013567ffffffffffffffff811115611f1e57611f1d611be6565b5b611f2a84828501611ebc565b91505092915050565b600081519050919050565b600082825260208201905092915050565b60005b83811015611f6d578082015181840152602081019050611f52565b60008484015250505050565b6000611f8482611f33565b611f8e8185611f3e565b9350611f9e818560208601611f4f565b611fa781611dae565b840191505092915050565b60006020820190508181036000830152611fcc8184611f79565b905092915050565b600060208284031215611fea57611fe9611be1565b5b6000611ff884828501611c6a565b91505092915050565b600067ffffffffffffffff82111561201c5761201b611dbf565b5b602082029050602081019050919050565b600080fd5b600061204561204084612001565b611e1f565b905080838252602082019050602084028301858111156120685761206761202d565b5b835b81811015612091578061207d8882611c6a565b84526020840193505060208101905061206a565b5050509392505050565b600082601f8301126120b0576120af611da4565b5b81356120c0848260208601612032565b91505092915050565b600067ffffffffffffffff8211156120e4576120e3611dbf565b5b6120ed82611dae565b9050602081019050919050565b600061210d612108846120c9565b611e1f565b90508281526020810184848401111561212957612128611da9565b5b612134848285611e6b565b509392505050565b600082601f83011261215157612150611da4565b5b81356121618482602086016120fa565b91505092915050565b600080600080600060a0868803121561218657612185611be1565b5b600061219488828901611c34565b95505060206121a588828901611c34565b945050604086013567ffffffffffffffff8111156121c6576121c5611be6565b5b6121d28882890161209b565b935050606086013567ffffffffffffffff8111156121f3576121f2611be6565b5b6121ff8882890161209b565b925050608086013567ffffffffffffffff8111156122205761221f611be6565b5b61222c8882890161213c565b9150509295509295909350565b6000819050919050565b600061225e61225961225484611beb565b612239565b611beb565b9050919050565b600061227082612243565b9050919050565b600061228282612265565b9050919050565b61229281612277565b82525050565b60006020820190506122ad6000830184612289565b92915050565b600067ffffffffffffffff8211156122ce576122cd611dbf565b5b602082029050602081019050919050565b60006122f26122ed846122b3565b611e1f565b905080838252602082019050602084028301858111156123155761231461202d565b5b835b8181101561233e578061232a8882611c34565b845260208401935050602081019050612317565b5050509392505050565b600082601f83011261235d5761235c611da4565b5b813561236d8482602086016122df565b91505092915050565b6000806040838503121561238d5761238c611be1565b5b600083013567ffffffffffffffff8111156123ab576123aa611be6565b5b6123b785828601612348565b925050602083013567ffffffffffffffff8111156123d8576123d7611be6565b5b6123e48582860161209b565b9150509250929050565b600081519050919050565b600082825260208201905092915050565b6000819050602082019050919050565b61242381611c49565b82525050565b6000612435838361241a565b60208301905092915050565b6000602082019050919050565b6000612459826123ee565b61246381856123f9565b935061246e8361240a565b8060005b8381101561249f5781516124868882612429565b975061249183612441565b925050600181019050612472565b5085935050505092915050565b600060208201905081810360008301526124c6818461244e565b905092915050565b6124d781611c0b565b82525050565b60006020820190506124f260008301846124ce565b92915050565b61250181611d6e565b811461250c57600080fd5b50565b60008135905061251e816124f8565b92915050565b6000806040838503121561253b5761253a611be1565b5b600061254985828601611c34565b925050602061255a8582860161250f565b9150509250929050565b6000806040838503121561257b5761257a611be1565b5b600061258985828601611c34565b925050602061259a85828601611c34565b9150509250929050565b600080600080600060a086880312156125c0576125bf611be1565b5b60006125ce88828901611c34565b95505060206125df88828901611c34565b94505060406125f088828901611c6a565b935050606061260188828901611c6a565b925050608086013567ffffffffffffffff81111561262257612621611be6565b5b61262e8882890161213c565b9150509295509295909350565b60006020828403121561265157612650611be1565b5b600061265f84828501611c34565b91505092915050565b7f4e487b7100000000000000000000000000000000000000000000000000000000600052602260045260246000fd5b600060028204905060018216806126af57607f821691505b6020821081036126c2576126c1612668565b5b50919050565b60006040820190506126dd60008301856124ce565b6126ea60208301846124ce565b9392505050565b7f4e487b7100000000000000000000000000000000000000000000000000000000600052601160045260246000fd5b600061272b82611c49565b915061273683611c49565b925082820190508082111561274e5761274d6126f1565b5b92915050565b7f4d41585f4d494e5441424c455f54415247455400000000000000000000000000600082015250565b600061278a601383611f3e565b915061279582612754565b602082019050919050565b600060208201905081810360008301526127b98161277d565b9050919050565b60006040820190506127d56000830185611cbf565b6127e26020830184611cbf565b9392505050565b7f4e487b7100000000000000000000000000000000000000000000000000000000600052603260045260246000fd5b7f50524943455f35305f5553445400000000000000000000000000000000000000600082015250565b600061284e600d83611f3e565b915061285982612818565b602082019050919050565b6000602082019050818103600083015261287d81612841565b9050919050565b60008151905061289381611c53565b92915050565b6000602082840312156128af576128ae611be1565b5b60006128bd84828501612884565b91505092915050565b7f494e56414c49445f414c4c4f57414e4345000000000000000000000000000000600082015250565b60006128fc601183611f3e565b9150612907826128c6565b602082019050919050565b6000602082019050818103600083015261292b816128ef565b9050919050565b7f494e56414c49445f414444524553535f544f0000000000000000000000000000600082015250565b6000612968601283611f3e565b915061297382612932565b602082019050919050565b600060208201905081810360008301526129978161295b565b9050919050565b60006060820190506129b360008301866124ce565b6129c060208301856124ce565b6129cd6040830184611cbf565b949350505050565b6000815190506129e4816124f8565b92915050565b600060208284031215612a00576129ff611be1565b5b6000612a0e848285016129d5565b91505092915050565b60008190508160005260206000209050919050565b60006020601f8301049050919050565b600082821b905092915050565b600060088302612a797fffffffffffffffffffffffffffffffffffffffffffffffffffffffffffffffff82612a3c565b612a838683612a3c565b95508019841693508086168417925050509392505050565b6000612ab6612ab1612aac84611c49565b612239565b611c49565b9050919050565b6000819050919050565b612ad083612a9b565b612ae4612adc82612abd565b848454612a49565b825550505050565b600090565b612af9612aec565b612b04818484612ac7565b505050565b5b81811015612b2857612b1d600082612af1565b600181019050612b0a565b5050565b601f821115612b6d57612b3e81612a17565b612b4784612a2c565b81016020851015612b56578190505b612b6a612b6285612a2c565b830182612b09565b50505b505050565b600082821c905092915050565b6000612b9060001984600802612b72565b1980831691505092915050565b6000612ba98383612b7f565b9150826002028217905092915050565b612bc282611f33565b67ffffffffffffffff811115612bdb57612bda611dbf565b5b612be58254612697565b612bf0828285612b2c565b600060209050601f831160018114612c235760008415612c11578287015190505b612c1b8582612b9d565b865550612c83565b601f198416612c3186612a17565b60005b82811015612c5957848901518255600182019150602085019450602081019050612c34565b86831015612c765784890151612c72601f891682612b7f565b8355505b6001600288020188555050505b505050505050565b6000608082019050612ca060008301876124ce565b612cad6020830186611cbf565b612cba6040830185611cbf565b612cc76060830184611cbf565b95945050505050565b60006040820190508181036000830152612cea818561244e565b90508181036020830152612cfe818461244e565b90509392505050565b600081519050919050565b600082825260208201905092915050565b6000612d2e82612d07565b612d388185612d12565b9350612d48818560208601611f4f565b612d5181611dae565b840191505092915050565b600060a082019050612d7160008301886124ce565b612d7e60208301876124ce565b612d8b6040830186611cbf565b612d986060830185611cbf565b8181036080830152612daa8184612d23565b90509695505050505050565b600081519050612dc581611d15565b92915050565b600060208284031215612de157612de0611be1565b5b6000612def84828501612db6565b91505092915050565b600060a082019050612e0d60008301886124ce565b612e1a60208301876124ce565b8181036040830152612e2c818661244e565b90508181036060830152612e40818561244e565b90508181036080830152612e548184612d23565b9050969550505050505056fea26469706673582212209ad3ac3890297bc2b8dc5792230a12f1a4ec11446dca288733e09178731f153c64736f6c634300081b0033",
  "linkReferences": {},
  "deployedLinkReferences": {}
}