{
  "_format": "hh-sol-artifact-1",
  "contractName": "VirtushPass",
  "sourceName": "contracts/VirtushNFT.sol",
  "abi": [
    {
      "inputs": [
        {
          "internalType": "address",
          "name": "initialOwner",
          "type": "address"
        },
        {
          "internalType": "address",
          "name": "_usdt",
          "type": "address"
        }
      ],
      "stateMutability": "nonpayable",
      "type": "constructor"
    },
    {
      "inputs": [
        {
          "internalType": "address",
          "name": "sender",
          "type": "address"
        },
        {
          "internalType": "uint256",
          "name": "tokenId",
          "type": "uint256"
        },
        {
          "internalType": "address",
          "name": "owner",
          "type": "address"
        }
      ],
      "name": "ERC721IncorrectOwner",
      "type": "error"
    },
    {
      "inputs": [
        {
          "internalType": "address",
          "name": "operator",
          "type": "address"
        },
        {
          "internalType": "uint256",
          "name": "tokenId",
          "type": "uint256"
        }
      ],
      "name": "ERC721InsufficientApproval",
      "type": "error"
    },
    {
      "inputs": [
        {
          "internalType": "address",
          "name": "approver",
          "type": "address"
        }
      ],
      "name": "ERC721InvalidApprover",
      "type": "error"
    },
    {
      "inputs": [
        {
          "internalType": "address",
          "name": "operator",
          "type": "address"
        }
      ],
      "name": "ERC721InvalidOperator",
      "type": "error"
    },
    {
      "inputs": [
        {
          "internalType": "address",
          "name": "owner",
          "type": "address"
        }
      ],
      "name": "ERC721InvalidOwner",
      "type": "error"
    },
    {
      "inputs": [
        {
          "internalType": "address",
          "name": "receiver",
          "type": "address"
        }
      ],
      "name": "ERC721InvalidReceiver",
      "type": "error"
    },
    {
      "inputs": [
        {
          "internalType": "address",
          "name": "sender",
          "type": "address"
        }
      ],
      "name": "ERC721InvalidSender",
      "type": "error"
    },
    {
      "inputs": [
        {
          "internalType": "uint256",
          "name": "tokenId",
          "type": "uint256"
        }
      ],
      "name": "ERC721NonexistentToken",
      "type": "error"
    },
    {
      "inputs": [
        {
          "internalType": "address",
          "name": "owner",
          "type": "address"
        }
      ],
      "name": "OwnableInvalidOwner",
      "type": "error"
    },
    {
      "inputs": [
        {
          "internalType": "address",
          "name": "account",
          "type": "address"
        }
      ],
      "name": "OwnableUnauthorizedAccount",
      "type": "error"
    },
    {
      "anonymous": false,
      "inputs": [
        {
          "indexed": true,
          "internalType": "address",
          "name": "owner",
          "type": "address"
        },
        {
          "indexed": true,
          "internalType": "address",
          "name": "approved",
          "type": "address"
        },
        {
          "indexed": true,
          "internalType": "uint256",
          "name": "tokenId",
          "type": "uint256"
        }
      ],
      "name": "Approval",
      "type": "event"
    },
    {
      "anonymous": false,
      "inputs": [
        {
          "indexed": true,
          "internalType": "address",
          "name": "owner",
          "type": "address"
        },
        {
          "indexed": true,
          "internalType": "address",
          "name": "operator",
          "type": "address"
        },
        {
          "indexed": false,
          "internalType": "bool",
          "name": "approved",
          "type": "bool"
        }
      ],
      "name": "ApprovalForAll",
      "type": "event"
    },
    {
      "anonymous": false,
      "inputs": [
        {
          "indexed": true,
          "internalType": "address",
          "name": "previousOwner",
          "type": "address"
        },
        {
          "indexed": true,
          "internalType": "address",
          "name": "newOwner",
          "type": "address"
        }
      ],
      "name": "OwnershipTransferred",
      "type": "event"
    },
    {
      "anonymous": false,
      "inputs": [
        {
          "indexed": true,
          "internalType": "address",
          "name": "from",
          "type": "address"
        },
        {
          "indexed": true,
          "internalType": "address",
          "name": "to",
          "type": "address"
        },
        {
          "indexed": true,
          "internalType": "uint256",
          "name": "tokenId",
          "type": "uint256"
        }
      ],
      "name": "Transfer",
      "type": "event"
    },
    {
      "inputs": [],
      "name": "_nextTokenId",
      "outputs": [
        {
          "internalType": "uint256",
          "name": "",
          "type": "uint256"
        }
      ],
      "stateMutability": "view",
      "type": "function"
    },
    {
      "inputs": [
        {
          "internalType": "address",
          "name": "to",
          "type": "address"
        },
        {
          "internalType": "uint256",
          "name": "tokenId",
          "type": "uint256"
        }
      ],
      "name": "approve",
      "outputs": [],
      "stateMutability": "nonpayable",
      "type": "function"
    },
    {
      "inputs": [
        {
          "internalType": "address",
          "name": "owner",
          "type": "address"
        }
      ],
      "name": "balanceOf",
      "outputs": [
        {
          "internalType": "uint256",
          "name": "",
          "type": "uint256"
        }
      ],
      "stateMutability": "view",
      "type": "function"
    },
    {
      "inputs": [
        {
          "internalType": "address",
          "name": "to",
          "type": "address"
        },
        {
          "internalType": "uint256",
          "name": "amount",
          "type": "uint256"
        }
      ],
      "name": "buy",
      "outputs": [
        {
          "internalType": "uint256",
          "name": "",
          "type": "uint256"
        }
      ],
      "stateMutability": "nonpayable",
      "type": "function"
    },
    {
      "inputs": [
        {
          "internalType": "uint256",
          "name": "tokenId",
          "type": "uint256"
        }
      ],
      "name": "getApproved",
      "outputs": [
        {
          "internalType": "address",
          "name": "",
          "type": "address"
        }
      ],
      "stateMutability": "view",
      "type": "function"
    },
    {
      "inputs": [
        {
          "internalType": "address",
          "name": "owner",
          "type": "address"
        },
        {
          "internalType": "address",
          "name": "operator",
          "type": "address"
        }
      ],
      "name": "isApprovedForAll",
      "outputs": [
        {
          "internalType": "bool",
          "name": "",
          "type": "bool"
        }
      ],
      "stateMutability": "view",
      "type": "function"
    },
    {
      "inputs": [],
      "name": "name",
      "outputs": [
        {
          "internalType": "string",
          "name": "",
          "type": "string"
        }
      ],
      "stateMutability": "view",
      "type": "function"
    },
    {
      "inputs": [],
      "name": "owner",
      "outputs": [
        {
          "internalType": "address",
          "name": "",
          "type": "address"
        }
      ],
      "stateMutability": "view",
      "type": "function"
    },
    {
      "inputs": [
        {
          "internalType": "uint256",
          "name": "tokenId",
          "type": "uint256"
        }
      ],
      "name": "ownerOf",
      "outputs": [
        {
          "internalType": "address",
          "name": "",
          "type": "address"
        }
      ],
      "stateMutability": "view",
      "type": "function"
    },
    {
      "inputs": [],
      "name": "renounceOwnership",
      "outputs": [],
      "stateMutability": "nonpayable",
      "type": "function"
    },
    {
      "inputs": [
        {
          "internalType": "address",
          "name": "from",
          "type": "address"
        },
        {
          "internalType": "address",
          "name": "to",
          "type": "address"
        },
        {
          "internalType": "uint256",
          "name": "tokenId",
          "type": "uint256"
        }
      ],
      "name": "safeTransferFrom",
      "outputs": [],
      "stateMutability": "nonpayable",
      "type": "function"
    },
    {
      "inputs": [
        {
          "internalType": "address",
          "name": "from",
          "type": "address"
        },
        {
          "internalType": "address",
          "name": "to",
          "type": "address"
        },
        {
          "internalType": "uint256",
          "name": "tokenId",
          "type": "uint256"
        },
        {
          "internalType": "bytes",
          "name": "data",
          "type": "bytes"
        }
      ],
      "name": "safeTransferFrom",
      "outputs": [],
      "stateMutability": "nonpayable",
      "type": "function"
    },
    {
      "inputs": [
        {
          "internalType": "address",
          "name": "operator",
          "type": "address"
        },
        {
          "internalType": "bool",
          "name": "approved",
          "type": "bool"
        }
      ],
      "name": "setApprovalForAll",
      "outputs": [],
      "stateMutability": "nonpayable",
      "type": "function"
    },
    {
      "inputs": [
        {
          "internalType": "bytes4",
          "name": "interfaceId",
          "type": "bytes4"
        }
      ],
      "name": "supportsInterface",
      "outputs": [
        {
          "internalType": "bool",
          "name": "",
          "type": "bool"
        }
      ],
      "stateMutability": "view",
      "type": "function"
    },
    {
      "inputs": [],
      "name": "symbol",
      "outputs": [
        {
          "internalType": "string",
          "name": "",
          "type": "string"
        }
      ],
      "stateMutability": "view",
      "type": "function"
    },
    {
      "inputs": [
        {
          "internalType": "uint256",
          "name": "tokenId",
          "type": "uint256"
        }
      ],
      "name": "tokenURI",
      "outputs": [
        {
          "internalType": "string",
          "name": "",
          "type": "string"
        }
      ],
      "stateMutability": "view",
      "type": "function"
    },
    {
      "inputs": [
        {
          "internalType": "address",
          "name": "from",
          "type": "address"
        },
        {
          "internalType": "address",
          "name": "to",
          "type": "address"
        },
        {
          "internalType": "uint256",
          "name": "tokenId",
          "type": "uint256"
        }
      ],
      "name": "transferFrom",
      "outputs": [],
      "stateMutability": "nonpayable",
      "type": "function"
    },
    {
      "inputs": [
        {
          "internalType": "address",
          "name": "newOwner",
          "type": "address"
        }
      ],
      "name": "transferOwnership",
      "outputs": [],
      "stateMutability": "nonpayable",
      "type": "function"
    }
  ],
  "bytecode": "0x60806040526802b5e3af16b188000060095534801561001d57600080fd5b50604051612ed3380380612ed3833981810160405281019061003f91906102c1565b816040518060400160405280600c81526020017f56697274757368205061737300000000000000000000000000000000000000008152506040518060400160405280600381526020017f565254000000000000000000000000000000000000000000000000000000000081525081600090816100bb9190610551565b5080600190816100cb9190610551565b505050600073ffffffffffffffffffffffffffffffffffffffff168173ffffffffffffffffffffffffffffffffffffffff16036101405760006040517f1e4fbdf70000000000000000000000000000000000000000000000000000000081526004016101379190610632565b60405180910390fd5b61014f8161019860201b60201c565b5080600860006101000a81548173ffffffffffffffffffffffffffffffffffffffff021916908373ffffffffffffffffffffffffffffffffffffffff160217905550505061064d565b6000600660009054906101000a900473ffffffffffffffffffffffffffffffffffffffff16905081600660006101000a81548173ffffffffffffffffffffffffffffffffffffffff021916908373ffffffffffffffffffffffffffffffffffffffff1602179055508173ffffffffffffffffffffffffffffffffffffffff168173ffffffffffffffffffffffffffffffffffffffff167f8be0079c531659141344cd1fd0a4f28419497f9722a3daafe3b4186f6b6457e060405160405180910390a35050565b600080fd5b600073ffffffffffffffffffffffffffffffffffffffff82169050919050565b600061028e82610263565b9050919050565b61029e81610283565b81146102a957600080fd5b50565b6000815190506102bb81610295565b92915050565b600080604083850312156102d8576102d761025e565b5b60006102e6858286016102ac565b92505060206102f7858286016102ac565b9150509250929050565b600081519050919050565b7f4e487b7100000000000000000000000000000000000000000000000000000000600052604160045260246000fd5b7f4e487b7100000000000000000000000000000000000000000000000000000000600052602260045260246000fd5b6000600282049050600182168061038257607f821691505b6020821081036103955761039461033b565b5b50919050565b60008190508160005260206000209050919050565b60006020601f8301049050919050565b600082821b905092915050565b6000600883026103fd7fffffffffffffffffffffffffffffffffffffffffffffffffffffffffffffffff826103c0565b61040786836103c0565b95508019841693508086168417925050509392505050565b6000819050919050565b6000819050919050565b600061044e6104496104448461041f565b610429565b61041f565b9050919050565b6000819050919050565b61046883610433565b61047c61047482610455565b8484546103cd565b825550505050565b600090565b610491610484565b61049c81848461045f565b505050565b5b818110156104c0576104b5600082610489565b6001810190506104a2565b5050565b601f821115610505576104d68161039b565b6104df846103b0565b810160208510156104ee578190505b6105026104fa856103b0565b8301826104a1565b50505b505050565b600082821c905092915050565b60006105286000198460080261050a565b1980831691505092915050565b60006105418383610517565b9150826002028217905092915050565b61055a82610301565b67ffffffffffffffff8111156105735761057261030c565b5b61057d825461036a565b6105888282856104c4565b600060209050601f8311600181146105bb57600084156105a9578287015190505b6105b38582610535565b86555061061b565b601f1984166105c98661039b565b60005b828110156105f1578489015182556001820191506020850194506020810190506105cc565b8683101561060e578489015161060a601f891682610517565b8355505b6001600288020188555050505b505050505050565b61062c81610283565b82525050565b60006020820190506106476000830184610623565b92915050565b6128778061065c6000396000f3fe608060405234801561001057600080fd5b50600436106101165760003560e01c8063715018a6116100a2578063b88d4fde11610071578063b88d4fde146102cd578063c87b56dd146102e9578063cce7ec1314610319578063e985e9c514610349578063f2fde38b1461037957610116565b8063715018a61461026b5780638da5cb5b1461027557806395d89b4114610293578063a22cb465146102b157610116565b806323b872dd116100e957806323b872dd146101b557806342842e0e146101d15780634a60f620146101ed5780636352211e1461020b57806370a082311461023b57610116565b806301ffc9a71461011b57806306fdde031461014b578063081812fc14610169578063095ea7b314610199575b600080fd5b61013560048036038101906101309190611d87565b610395565b6040516101429190611dcf565b60405180910390f35b610153610477565b6040516101609190611e7a565b60405180910390f35b610183600480360381019061017e9190611ed2565b610509565b6040516101909190611f40565b60405180910390f35b6101b360048036038101906101ae9190611f87565b610525565b005b6101cf60048036038101906101ca9190611fc7565b61053b565b005b6101eb60048036038101906101e69190611fc7565b61063d565b005b6101f561065d565b6040516102029190612029565b60405180910390f35b61022560048036038101906102209190611ed2565b610663565b6040516102329190611f40565b60405180910390f35b61025560048036038101906102509190612044565b610675565b6040516102629190612029565b60405180910390f35b61027361072f565b005b61027d610743565b60405161028a9190611f40565b60405180910390f35b61029b61076d565b6040516102a89190611e7a565b60405180910390f35b6102cb60048036038101906102c6919061209d565b6107ff565b005b6102e760048036038101906102e29190612212565b610815565b005b61030360048036038101906102fe9190611ed2565b61083a565b6040516103109190611e7a565b60405180910390f35b610333600480360381019061032e9190611f87565b6108a3565b6040516103409190612029565b60405180910390f35b610363600480360381019061035e9190612295565b610bb3565b6040516103709190611dcf565b60405180910390f35b610393600480360381019061038e9190612044565b610c47565b005b60007f80ac58cd000000000000000000000000000000000000000000000000000000007bffffffffffffffffffffffffffffffffffffffffffffffffffffffff1916827bffffffffffffffffffffffffffffffffffffffffffffffffffffffff1916148061046057507f5b5e139f000000000000000000000000000000000000000000000000000000007bffffffffffffffffffffffffffffffffffffffffffffffffffffffff1916827bffffffffffffffffffffffffffffffffffffffffffffffffffffffff1916145b80610470575061046f82610ccd565b5b9050919050565b60606000805461048690612304565b80601f01602080910402602001604051908101604052809291908181526020018280546104b290612304565b80156104ff5780601f106104d4576101008083540402835291602001916104ff565b820191906000526020600020905b8154815290600101906020018083116104e257829003601f168201915b5050505050905090565b600061051482610d37565b5061051e82610dbf565b9050919050565b6105378282610532610dfc565b610e04565b5050565b600073ffffffffffffffffffffffffffffffffffffffff168273ffffffffffffffffffffffffffffffffffffffff16036105ad5760006040517f64a0ae920000000000000000000000000000000000000000000000000000000081526004016105a49190611f40565b60405180910390fd5b60006105c183836105bc610dfc565b610e16565b90508373ffffffffffffffffffffffffffffffffffffffff168173ffffffffffffffffffffffffffffffffffffffff1614610637578382826040517f64283d7b00000000000000000000000000000000000000000000000000000000815260040161062e93929190612335565b60405180910390fd5b50505050565b61065883838360405180602001604052806000815250610815565b505050565b60075481565b600061066e82610d37565b9050919050565b60008073ffffffffffffffffffffffffffffffffffffffff168273ffffffffffffffffffffffffffffffffffffffff16036106e85760006040517f89c62b640000000000000000000000000000000000000000000000000000000081526004016106df9190611f40565b60405180910390fd5b600360008373ffffffffffffffffffffffffffffffffffffffff1673ffffffffffffffffffffffffffffffffffffffff168152602001908152602001600020549050919050565b610737611030565b61074160006110b7565b565b6000600660009054906101000a900473ffffffffffffffffffffffffffffffffffffffff16905090565b60606001805461077c90612304565b80601f01602080910402602001604051908101604052809291908181526020018280546107a890612304565b80156107f55780601f106107ca576101008083540402835291602001916107f5565b820191906000526020600020905b8154815290600101906020018083116107d857829003601f168201915b5050505050905090565b61081161080a610dfc565b838361117d565b5050565b61082084848461053b565b61083461082b610dfc565b858585856112ec565b50505050565b606061084582610d37565b50600061085061149d565b90506000815111610870576040518060200160405280600081525061089b565b8061087a846114da565b60405160200161088b9291906123a8565b6040516020818303038152906040525b915050919050565b600060095482146108e9576040517f08c379a00000000000000000000000000000000000000000000000000000000081526004016108e090612418565b60405180910390fd5b81600860009054906101000a900473ffffffffffffffffffffffffffffffffffffffff1673ffffffffffffffffffffffffffffffffffffffff1663dd62ed3e610930610dfc565b306040518363ffffffff1660e01b815260040161094e929190612438565b602060405180830381865afa15801561096b573d6000803e3d6000fd5b505050506040513d601f19601f8201168201806040525081019061098f9190612476565b10156109d0576040517f08c379a00000000000000000000000000000000000000000000000000000000081526004016109c7906124ef565b60405180910390fd5b600073ffffffffffffffffffffffffffffffffffffffff168373ffffffffffffffffffffffffffffffffffffffff1603610a3f576040517f08c379a0000000000000000000000000000000000000000000000000000000008152600401610a369061255b565b60405180910390fd5b610aec600860009054906101000a900473ffffffffffffffffffffffffffffffffffffffff1673ffffffffffffffffffffffffffffffffffffffff1663dd62ed3e610a88610dfc565b306040518363ffffffff1660e01b8152600401610aa6929190612438565b602060405180830381865afa158015610ac3573d6000803e3d6000fd5b505050506040513d601f19601f82011682018060405250810190610ae79190612476565b6115a8565b600860009054906101000a900473ffffffffffffffffffffffffffffffffffffffff1673ffffffffffffffffffffffffffffffffffffffff166323b872dd610b32610dfc565b610b3a610743565b6009546040518463ffffffff1660e01b8152600401610b5b9392919061257b565b6020604051808303816000875af1158015610b7a573d6000803e3d6000fd5b505050506040513d601f19601f82011682018060405250810190610b9e91906125c7565b50610ba883611641565b600754905092915050565b6000600560008473ffffffffffffffffffffffffffffffffffffffff1673ffffffffffffffffffffffffffffffffffffffff16815260200190815260200160002060008373ffffffffffffffffffffffffffffffffffffffff1673ffffffffffffffffffffffffffffffffffffffff16815260200190815260200160002060009054906101000a900460ff16905092915050565b610c4f611030565b600073ffffffffffffffffffffffffffffffffffffffff168173ffffffffffffffffffffffffffffffffffffffff1603610cc15760006040517f1e4fbdf7000000000000000000000000000000000000000000000000000000008152600401610cb89190611f40565b60405180910390fd5b610cca816110b7565b50565b60007f01ffc9a7000000000000000000000000000000000000000000000000000000007bffffffffffffffffffffffffffffffffffffffffffffffffffffffff1916827bffffffffffffffffffffffffffffffffffffffffffffffffffffffff1916149050919050565b600080610d43836116b6565b9050600073ffffffffffffffffffffffffffffffffffffffff168173ffffffffffffffffffffffffffffffffffffffff1603610db657826040517f7e273289000000000000000000000000000000000000000000000000000000008152600401610dad9190612029565b60405180910390fd5b80915050919050565b60006004600083815260200190815260200160002060009054906101000a900473ffffffffffffffffffffffffffffffffffffffff169050919050565b600033905090565b610e1183838360016116f3565b505050565b600080610e22846116b6565b9050600073ffffffffffffffffffffffffffffffffffffffff168373ffffffffffffffffffffffffffffffffffffffff1614610e6457610e638184866118b8565b5b600073ffffffffffffffffffffffffffffffffffffffff168173ffffffffffffffffffffffffffffffffffffffff1614610ef557610ea66000856000806116f3565b6001600360008373ffffffffffffffffffffffffffffffffffffffff1673ffffffffffffffffffffffffffffffffffffffff168152602001908152602001600020600082825403925050819055505b600073ffffffffffffffffffffffffffffffffffffffff168573ffffffffffffffffffffffffffffffffffffffff1614610f78576001600360008773ffffffffffffffffffffffffffffffffffffffff1673ffffffffffffffffffffffffffffffffffffffff168152602001908152602001600020600082825401925050819055505b846002600086815260200190815260200160002060006101000a81548173ffffffffffffffffffffffffffffffffffffffff021916908373ffffffffffffffffffffffffffffffffffffffff160217905550838573ffffffffffffffffffffffffffffffffffffffff168273ffffffffffffffffffffffffffffffffffffffff167fddf252ad1be2c89b69c2b068fc378daa952ba7f163c4a11628f55a4df523b3ef60405160405180910390a4809150509392505050565b611038610dfc565b73ffffffffffffffffffffffffffffffffffffffff16611056610743565b73ffffffffffffffffffffffffffffffffffffffff16146110b557611079610dfc565b6040517f118cdaa70000000000000000000000000000000000000000000000000000000081526004016110ac9190611f40565b60405180910390fd5b565b6000600660009054906101000a900473ffffffffffffffffffffffffffffffffffffffff16905081600660006101000a81548173ffffffffffffffffffffffffffffffffffffffff021916908373ffffffffffffffffffffffffffffffffffffffff1602179055508173ffffffffffffffffffffffffffffffffffffffff168173ffffffffffffffffffffffffffffffffffffffff167f8be0079c531659141344cd1fd0a4f28419497f9722a3daafe3b4186f6b6457e060405160405180910390a35050565b600073ffffffffffffffffffffffffffffffffffffffff168273ffffffffffffffffffffffffffffffffffffffff16036111ee57816040517f5b08ba180000000000000000000000000000000000000000000000000000000081526004016111e59190611f40565b60405180910390fd5b80600560008573ffffffffffffffffffffffffffffffffffffffff1673ffffffffffffffffffffffffffffffffffffffff16815260200190815260200160002060008473ffffffffffffffffffffffffffffffffffffffff1673ffffffffffffffffffffffffffffffffffffffff16815260200190815260200160002060006101000a81548160ff0219169083151502179055508173ffffffffffffffffffffffffffffffffffffffff168373ffffffffffffffffffffffffffffffffffffffff167f17307eab39ab6107e8899845ad3d59bd9653f200f220920489ca2b5937696c31836040516112df9190611dcf565b60405180910390a3505050565b60008373ffffffffffffffffffffffffffffffffffffffff163b1115611496578273ffffffffffffffffffffffffffffffffffffffff1663150b7a02868685856040518563ffffffff1660e01b815260040161134b9493929190612649565b6020604051808303816000875af192505050801561138757506040513d601f19601f8201168201806040525081019061138491906126aa565b60015b61140b573d80600081146113b7576040519150601f19603f3d011682016040523d82523d6000602084013e6113bc565b606091505b50600081510361140357836040517f64a0ae920000000000000000000000000000000000000000000000000000000081526004016113fa9190611f40565b60405180910390fd5b805181602001fd5b63150b7a0260e01b7bffffffffffffffffffffffffffffffffffffffffffffffffffffffff1916817bffffffffffffffffffffffffffffffffffffffffffffffffffffffff19161461149457836040517f64a0ae9200000000000000000000000000000000000000000000000000000000815260040161148b9190611f40565b60405180910390fd5b505b5050505050565b60606040518060400160405280601381526020017f68747070733a2f2f766972747573682e636f6d00000000000000000000000000815250905090565b6060600060016114e98461197c565b01905060008167ffffffffffffffff811115611508576115076120e7565b5b6040519080825280601f01601f19166020018201604052801561153a5781602001600182028036833780820191505090505b509050600082602001820190505b60011561159d578080600190039150507f3031323334353637383961626364656600000000000000000000000000000000600a86061a8153600a8581611591576115906126d7565b5b04945060008503611548575b819350505050919050565b61163e816040516024016115bc9190612029565b6040516020818303038152906040527ff82c50f1000000000000000000000000000000000000000000000000000000007bffffffffffffffffffffffffffffffffffffffffffffffffffffffff19166020820180517bffffffffffffffffffffffffffffffffffffffffffffffffffffffff8381831617835250505050611acf565b50565b6301406f4060075410611689576040517f08c379a000000000000000000000000000000000000000000000000000000000815260040161168090612752565b60405180910390fd5b60006007549050600760008154809291906116a3906127a1565b91905055506116b28282611ae9565b5050565b60006002600083815260200190815260200160002060009054906101000a900473ffffffffffffffffffffffffffffffffffffffff169050919050565b808061172c5750600073ffffffffffffffffffffffffffffffffffffffff168273ffffffffffffffffffffffffffffffffffffffff1614155b1561186057600061173c84610d37565b9050600073ffffffffffffffffffffffffffffffffffffffff168373ffffffffffffffffffffffffffffffffffffffff16141580156117a757508273ffffffffffffffffffffffffffffffffffffffff168173ffffffffffffffffffffffffffffffffffffffff1614155b80156117ba57506117b88184610bb3565b155b156117fc57826040517fa9fbf51f0000000000000000000000000000000000000000000000000000000081526004016117f39190611f40565b60405180910390fd5b811561185e57838573ffffffffffffffffffffffffffffffffffffffff168273ffffffffffffffffffffffffffffffffffffffff167f8c5be1e5ebec7d5bd14f71427d1e84f3dd0314c0f7b2291e5b200ac8c7c3b92560405160405180910390a45b505b836004600085815260200190815260200160002060006101000a81548173ffffffffffffffffffffffffffffffffffffffff021916908373ffffffffffffffffffffffffffffffffffffffff16021790555050505050565b6118c3838383611b07565b61197757600073ffffffffffffffffffffffffffffffffffffffff168373ffffffffffffffffffffffffffffffffffffffff160361193857806040517f7e27328900000000000000000000000000000000000000000000000000000000815260040161192f9190612029565b60405180910390fd5b81816040517f177e802f00000000000000000000000000000000000000000000000000000000815260040161196e9291906127e9565b60405180910390fd5b505050565b600080600090507a184f03e93ff9f4daa797ed6e38ed64bf6a1f01000000000000000083106119da577a184f03e93ff9f4daa797ed6e38ed64bf6a1f01000000000000000083816119d0576119cf6126d7565b5b0492506040810190505b6d04ee2d6d415b85acef81000000008310611a17576d04ee2d6d415b85acef81000000008381611a0d57611a0c6126d7565b5b0492506020810190505b662386f26fc100008310611a4657662386f26fc100008381611a3c57611a3b6126d7565b5b0492506010810190505b6305f5e1008310611a6f576305f5e1008381611a6557611a646126d7565b5b0492506008810190505b6127108310611a94576127108381611a8a57611a896126d7565b5b0492506004810190505b60648310611ab75760648381611aad57611aac6126d7565b5b0492506002810190505b600a8310611ac6576001810190505b80915050919050565b611ae681611ade611bc8611be9565b63ffffffff16565b50565b611b03828260405180602001604052806000815250611bf4565b5050565b60008073ffffffffffffffffffffffffffffffffffffffff168373ffffffffffffffffffffffffffffffffffffffff1614158015611bbf57508273ffffffffffffffffffffffffffffffffffffffff168473ffffffffffffffffffffffffffffffffffffffff161480611b805750611b7f8484610bb3565b5b80611bbe57508273ffffffffffffffffffffffffffffffffffffffff16611ba683610dbf565b73ffffffffffffffffffffffffffffffffffffffff16145b5b90509392505050565b60006a636f6e736f6c652e6c6f679050600080835160208501845afa505050565b611d11819050919050565b611bfe8383611c18565b611c13611c09610dfc565b60008585856112ec565b505050565b600073ffffffffffffffffffffffffffffffffffffffff168273ffffffffffffffffffffffffffffffffffffffff1603611c8a5760006040517f64a0ae92000000000000000000000000000000000000000000000000000000008152600401611c819190611f40565b60405180910390fd5b6000611c9883836000610e16565b9050600073ffffffffffffffffffffffffffffffffffffffff168173ffffffffffffffffffffffffffffffffffffffff1614611d0c5760006040517f73c6ac6e000000000000000000000000000000000000000000000000000000008152600401611d039190611f40565b60405180910390fd5b505050565b611d19612812565b565b6000604051905090565b600080fd5b600080fd5b60007fffffffff0000000000000000000000000000000000000000000000000000000082169050919050565b611d6481611d2f565b8114611d6f57600080fd5b50565b600081359050611d8181611d5b565b92915050565b600060208284031215611d9d57611d9c611d25565b5b6000611dab84828501611d72565b91505092915050565b60008115159050919050565b611dc981611db4565b82525050565b6000602082019050611de46000830184611dc0565b92915050565b600081519050919050565b600082825260208201905092915050565b60005b83811015611e24578082015181840152602081019050611e09565b60008484015250505050565b6000601f19601f8301169050919050565b6000611e4c82611dea565b611e568185611df5565b9350611e66818560208601611e06565b611e6f81611e30565b840191505092915050565b60006020820190508181036000830152611e948184611e41565b905092915050565b6000819050919050565b611eaf81611e9c565b8114611eba57600080fd5b50565b600081359050611ecc81611ea6565b92915050565b600060208284031215611ee857611ee7611d25565b5b6000611ef684828501611ebd565b91505092915050565b600073ffffffffffffffffffffffffffffffffffffffff82169050919050565b6000611f2a82611eff565b9050919050565b611f3a81611f1f565b82525050565b6000602082019050611f556000830184611f31565b92915050565b611f6481611f1f565b8114611f6f57600080fd5b50565b600081359050611f8181611f5b565b92915050565b60008060408385031215611f9e57611f9d611d25565b5b6000611fac85828601611f72565b9250506020611fbd85828601611ebd565b9150509250929050565b600080600060608486031215611fe057611fdf611d25565b5b6000611fee86828701611f72565b9350506020611fff86828701611f72565b925050604061201086828701611ebd565b9150509250925092565b61202381611e9c565b82525050565b600060208201905061203e600083018461201a565b92915050565b60006020828403121561205a57612059611d25565b5b600061206884828501611f72565b91505092915050565b61207a81611db4565b811461208557600080fd5b50565b60008135905061209781612071565b92915050565b600080604083850312156120b4576120b3611d25565b5b60006120c285828601611f72565b92505060206120d385828601612088565b9150509250929050565b600080fd5b600080fd5b7f4e487b7100000000000000000000000000000000000000000000000000000000600052604160045260246000fd5b61211f82611e30565b810181811067ffffffffffffffff8211171561213e5761213d6120e7565b5b80604052505050565b6000612151611d1b565b905061215d8282612116565b919050565b600067ffffffffffffffff82111561217d5761217c6120e7565b5b61218682611e30565b9050602081019050919050565b82818337600083830152505050565b60006121b56121b084612162565b612147565b9050828152602081018484840111156121d1576121d06120e2565b5b6121dc848285612193565b509392505050565b600082601f8301126121f9576121f86120dd565b5b81356122098482602086016121a2565b91505092915050565b6000806000806080858703121561222c5761222b611d25565b5b600061223a87828801611f72565b945050602061224b87828801611f72565b935050604061225c87828801611ebd565b925050606085013567ffffffffffffffff81111561227d5761227c611d2a565b5b612289878288016121e4565b91505092959194509250565b600080604083850312156122ac576122ab611d25565b5b60006122ba85828601611f72565b92505060206122cb85828601611f72565b9150509250929050565b7f4e487b7100000000000000000000000000000000000000000000000000000000600052602260045260246000fd5b6000600282049050600182168061231c57607f821691505b60208210810361232f5761232e6122d5565b5b50919050565b600060608201905061234a6000830186611f31565b612357602083018561201a565b6123646040830184611f31565b949350505050565b600081905092915050565b600061238282611dea565b61238c818561236c565b935061239c818560208601611e06565b80840191505092915050565b60006123b48285612377565b91506123c08284612377565b91508190509392505050565b7f50524943455f35305f5553445400000000000000000000000000000000000000600082015250565b6000612402600d83611df5565b915061240d826123cc565b602082019050919050565b60006020820190508181036000830152612431816123f5565b9050919050565b600060408201905061244d6000830185611f31565b61245a6020830184611f31565b9392505050565b60008151905061247081611ea6565b92915050565b60006020828403121561248c5761248b611d25565b5b600061249a84828501612461565b91505092915050565b7f494e56414c49445f414c4c4f57414e4345000000000000000000000000000000600082015250565b60006124d9601183611df5565b91506124e4826124a3565b602082019050919050565b60006020820190508181036000830152612508816124cc565b9050919050565b7f494e56414c49445f414444524553535f544f0000000000000000000000000000600082015250565b6000612545601283611df5565b91506125508261250f565b602082019050919050565b6000602082019050818103600083015261257481612538565b9050919050565b60006060820190506125906000830186611f31565b61259d6020830185611f31565b6125aa604083018461201a565b949350505050565b6000815190506125c181612071565b92915050565b6000602082840312156125dd576125dc611d25565b5b60006125eb848285016125b2565b91505092915050565b600081519050919050565b600082825260208201905092915050565b600061261b826125f4565b61262581856125ff565b9350612635818560208601611e06565b61263e81611e30565b840191505092915050565b600060808201905061265e6000830187611f31565b61266b6020830186611f31565b612678604083018561201a565b818103606083015261268a8184612610565b905095945050505050565b6000815190506126a481611d5b565b92915050565b6000602082840312156126c0576126bf611d25565b5b60006126ce84828501612695565b91505092915050565b7f4e487b7100000000000000000000000000000000000000000000000000000000600052601260045260246000fd5b7f494e56414c49445f4d494e540000000000000000000000000000000000000000600082015250565b600061273c600c83611df5565b915061274782612706565b602082019050919050565b6000602082019050818103600083015261276b8161272f565b9050919050565b7f4e487b7100000000000000000000000000000000000000000000000000000000600052601160045260246000fd5b60006127ac82611e9c565b91507fffffffffffffffffffffffffffffffffffffffffffffffffffffffffffffffff82036127de576127dd612772565b5b600182019050919050565b60006040820190506127fe6000830185611f31565b61280b602083018461201a565b9392505050565b7f4e487b7100000000000000000000000000000000000000000000000000000000600052605160045260246000fdfea2646970667358221220dfe434e0a1900aaa4b51f69eaa61e5fa51cd469c96fd727bcf359140e082d08f64736f6c634300081b0033",
  "linkReferences": {},
  "deployedLinkReferences": {}
}